{
  "_format": "hh-sol-artifact-1",
  "contractName": "CourseFactory",
  "sourceName": "contracts/CourseFactory.sol",
  "abi": [
    {
      "inputs": [
        {
          "internalType": "address",
          "name": "_implementation",
          "type": "address"
        }
      ],
      "stateMutability": "nonpayable",
      "type": "constructor"
    },
    {
      "inputs": [
        {
          "internalType": "uint256",
          "name": "",
          "type": "uint256"
        }
      ],
      "name": "cloneAddresses",
      "outputs": [
        {
          "internalType": "address",
          "name": "",
          "type": "address"
        }
      ],
      "stateMutability": "view",
      "type": "function"
    },
    {
      "inputs": [
        {
          "internalType": "address",
          "name": "_underlyingAddress",
          "type": "address"
        },
        {
          "internalType": "address",
          "name": "_cTokenAddress",
          "type": "address"
        },
        {
          "internalType": "uint256",
          "name": "_fee",
          "type": "uint256"
        },
        {
          "internalType": "uint256",
          "name": "_courseNumberOfWeeks",
          "type": "uint256"
        },
        {
          "internalType": "bool",
          "name": "_enrollmentIsOpen",
          "type": "bool"
        }
      ],
      "name": "createCourse",
      "outputs": [
        {
          "internalType": "address",
          "name": "",
          "type": "address"
        }
      ],
      "stateMutability": "nonpayable",
      "type": "function"
    }
  ],
  "bytecode": "0x60a060405234801561001057600080fd5b5060405161069d38038061069d83398181016040528101906100329190610084565b8073ffffffffffffffffffffffffffffffffffffffff1660808173ffffffffffffffffffffffffffffffffffffffff1660601b81525050506100f6565b60008151905061007e816100df565b92915050565b60006020828403121561009657600080fd5b60006100a48482850161006f565b91505092915050565b60006100b8826100bf565b9050919050565b600073ffffffffffffffffffffffffffffffffffffffff82169050919050565b6100e8816100ad565b81146100f357600080fd5b50565b60805160601c61058a610113600039600060e2015261058a6000f3fe608060405234801561001057600080fd5b50600436106100365760003560e01c80636003f6211461003b5780638b16cc091461006b575b600080fd5b61005560048036038101906100509190610378565b61009b565b60405161006291906103f1565b60405180910390f35b61008560048036038101906100809190610301565b6100da565b60405161009291906103f1565b60405180910390f35b600081815481106100ab57600080fd5b906000526020600020016000915054906101000a900473ffffffffffffffffffffffffffffffffffffffff1681565b6000806101067f00000000000000000000000000000000000000000000000000000000000000006101ed565b90508073ffffffffffffffffffffffffffffffffffffffff166324d92e9f8888888888336040518763ffffffff1660e01b815260040161014b9695949392919061040c565b600060405180830381600087803b15801561016557600080fd5b505af1158015610179573d6000803e3d6000fd5b505050506000819080600181540180825580915050600190039060005260206000200160009091909190916101000a81548173ffffffffffffffffffffffffffffffffffffffff021916908373ffffffffffffffffffffffffffffffffffffffff1602179055508091505095945050505050565b60006040517f3d602d80600a3d3981f3363d3d373d3d3d363d7300000000000000000000000081528260601b60148201527f5af43d82803e903d91602b57fd5bf3000000000000000000000000000000000060288201526037816000f0915050600073ffffffffffffffffffffffffffffffffffffffff168173ffffffffffffffffffffffffffffffffffffffff1614156102bd576040517f08c379a00000000000000000000000000000000000000000000000000000000081526004016102b49061046d565b60405180910390fd5b919050565b6000813590506102d18161050f565b92915050565b6000813590506102e681610526565b92915050565b6000813590506102fb8161053d565b92915050565b600080600080600060a0868803121561031957600080fd5b6000610327888289016102c2565b9550506020610338888289016102c2565b9450506040610349888289016102ec565b935050606061035a888289016102ec565b925050608061036b888289016102d7565b9150509295509295909350565b60006020828403121561038a57600080fd5b6000610398848285016102ec565b91505092915050565b6103aa8161049e565b82525050565b6103b9816104b0565b82525050565b60006103cc60168361048d565b91506103d7826104e6565b602082019050919050565b6103eb816104dc565b82525050565b600060208201905061040660008301846103a1565b92915050565b600060c08201905061042160008301896103a1565b61042e60208301886103a1565b61043b60408301876103e2565b61044860608301866103e2565b61045560808301856103b0565b61046260a08301846103a1565b979650505050505050565b60006020820190508181036000830152610486816103bf565b9050919050565b600082825260208201905092915050565b60006104a9826104bc565b9050919050565b60008115159050919050565b600073ffffffffffffffffffffffffffffffffffffffff82169050919050565b6000819050919050565b7f455243313136373a20637265617465206661696c656400000000000000000000600082015250565b6105188161049e565b811461052357600080fd5b50565b61052f816104b0565b811461053a57600080fd5b50565b610546816104dc565b811461055157600080fd5b5056fea2646970667358221220341727f848f8980d3e419129657ad14d57e85eb6e0eb7d271c16194b598c453864736f6c63430008040033",
  "linkReferences": {},
  "deployedLinkReferences": {}
}