{
  "_format": "hh-sol-artifact-1",
  "contractName": "CourseFactory",
  "sourceName": "contracts/CourseFactory.sol",
  "abi": [
    {
      "inputs": [
        {
          "internalType": "address",
          "name": "_implementation",
          "type": "address"
        }
      ],
      "stateMutability": "nonpayable",
      "type": "constructor"
    },
    {
      "inputs": [
        {
          "internalType": "uint256",
          "name": "",
          "type": "uint256"
        }
      ],
      "name": "cloneAddresses",
      "outputs": [
        {
          "internalType": "address",
          "name": "",
          "type": "address"
        }
      ],
      "stateMutability": "view",
      "type": "function"
    },
    {
      "inputs": [
        {
          "internalType": "address",
          "name": "_underlyingAddress",
          "type": "address"
        },
        {
          "internalType": "address",
          "name": "_cTokenAddress",
          "type": "address"
        },
        {
          "internalType": "uint256",
          "name": "_fee",
          "type": "uint256"
        },
        {
          "internalType": "uint256",
          "name": "_courseNumberOfWeeks",
          "type": "uint256"
        },
        {
          "internalType": "bool",
          "name": "_enrollmentIsOpen",
          "type": "bool"
        }
      ],
      "name": "createCourse",
      "outputs": [
        {
          "internalType": "address",
          "name": "",
          "type": "address"
        }
      ],
      "stateMutability": "nonpayable",
      "type": "function"
    },
    {
      "inputs": [],
      "name": "getCloneAddresses",
      "outputs": [
        {
          "internalType": "address[]",
          "name": "",
          "type": "address[]"
        }
      ],
      "stateMutability": "view",
      "type": "function"
    }
  ],
  "bytecode": "0x60a060405234801561001057600080fd5b5060405161083538038061083583398181016040528101906100329190610084565b8073ffffffffffffffffffffffffffffffffffffffff1660808173ffffffffffffffffffffffffffffffffffffffff1660601b81525050506100f6565b60008151905061007e816100df565b92915050565b60006020828403121561009657600080fd5b60006100a48482850161006f565b91505092915050565b60006100b8826100bf565b9050919050565b600073ffffffffffffffffffffffffffffffffffffffff82169050919050565b6100e8816100ad565b81146100f357600080fd5b50565b60805160601c610721610114600039600061019901526107216000f3fe608060405234801561001057600080fd5b50600436106100415760003560e01c80636003f6211461004657806389a66c08146100765780638b16cc0914610094575b600080fd5b610060600480360381019061005b919061042f565b6100c4565b60405161006d919061052d565b60405180910390f35b61007e610103565b60405161008b91906105a9565b60405180910390f35b6100ae60048036038101906100a991906103b8565b610191565b6040516100bb919061052d565b60405180910390f35b600081815481106100d457600080fd5b906000526020600020016000915054906101000a900473ffffffffffffffffffffffffffffffffffffffff1681565b6060600080548060200260200160405190810160405280929190818152602001828054801561018757602002820191906000526020600020905b8160009054906101000a900473ffffffffffffffffffffffffffffffffffffffff1673ffffffffffffffffffffffffffffffffffffffff168152602001906001019080831161013d575b5050505050905090565b6000806101bd7f00000000000000000000000000000000000000000000000000000000000000006102a4565b90508073ffffffffffffffffffffffffffffffffffffffff166324d92e9f8888888888336040518763ffffffff1660e01b815260040161020296959493929190610548565b600060405180830381600087803b15801561021c57600080fd5b505af1158015610230573d6000803e3d6000fd5b505050506000819080600181540180825580915050600190039060005260206000200160009091909190916101000a81548173ffffffffffffffffffffffffffffffffffffffff021916908373ffffffffffffffffffffffffffffffffffffffff1602179055508091505095945050505050565b60006040517f3d602d80600a3d3981f3363d3d373d3d3d363d7300000000000000000000000081528260601b60148201527f5af43d82803e903d91602b57fd5bf3000000000000000000000000000000000060288201526037816000f0915050600073ffffffffffffffffffffffffffffffffffffffff168173ffffffffffffffffffffffffffffffffffffffff161415610374576040517f08c379a000000000000000000000000000000000000000000000000000000000815260040161036b906105cb565b60405180910390fd5b919050565b600081359050610388816106a6565b92915050565b60008135905061039d816106bd565b92915050565b6000813590506103b2816106d4565b92915050565b600080600080600060a086880312156103d057600080fd5b60006103de88828901610379565b95505060206103ef88828901610379565b9450506040610400888289016103a3565b9350506060610411888289016103a3565b92505060806104228882890161038e565b9150509295509295909350565b60006020828403121561044157600080fd5b600061044f848285016103a3565b91505092915050565b60006104648383610470565b60208301905092915050565b61047981610635565b82525050565b61048881610635565b82525050565b6000610499826105fb565b6104a38185610613565b93506104ae836105eb565b8060005b838110156104df5781516104c68882610458565b97506104d183610606565b9250506001810190506104b2565b5085935050505092915050565b6104f581610647565b82525050565b6000610508601683610624565b91506105138261067d565b602082019050919050565b61052781610673565b82525050565b6000602082019050610542600083018461047f565b92915050565b600060c08201905061055d600083018961047f565b61056a602083018861047f565b610577604083018761051e565b610584606083018661051e565b61059160808301856104ec565b61059e60a083018461047f565b979650505050505050565b600060208201905081810360008301526105c3818461048e565b905092915050565b600060208201905081810360008301526105e4816104fb565b9050919050565b6000819050602082019050919050565b600081519050919050565b6000602082019050919050565b600082825260208201905092915050565b600082825260208201905092915050565b600061064082610653565b9050919050565b60008115159050919050565b600073ffffffffffffffffffffffffffffffffffffffff82169050919050565b6000819050919050565b7f455243313136373a20637265617465206661696c656400000000000000000000600082015250565b6106af81610635565b81146106ba57600080fd5b50565b6106c681610647565b81146106d157600080fd5b50565b6106dd81610673565b81146106e857600080fd5b5056fea2646970667358221220c7cd47f6b717b1656f31096f1c09e1bc724af084114cecac418e1127c83e738664736f6c63430008040033",
  "linkReferences": {},
  "deployedLinkReferences": {}
}