{
  "_format": "hh-sol-artifact-1",
  "contractName": "Course",
  "sourceName": "contracts/Course.sol",
  "abi": [
    {
      "anonymous": false,
      "inputs": [
        {
          "indexed": false,
          "internalType": "string",
          "name": "description",
          "type": "string"
        },
        {
          "indexed": false,
          "internalType": "uint256",
          "name": "amount",
          "type": "uint256"
        }
      ],
      "name": "InvestToComp",
      "type": "event"
    },
    {
      "anonymous": false,
      "inputs": [
        {
          "indexed": false,
          "internalType": "address",
          "name": "account",
          "type": "address"
        }
      ],
      "name": "Paused",
      "type": "event"
    },
    {
      "anonymous": false,
      "inputs": [
        {
          "indexed": true,
          "internalType": "address",
          "name": "userAddress",
          "type": "address"
        },
        {
          "indexed": false,
          "internalType": "uint256",
          "name": "fee",
          "type": "uint256"
        }
      ],
      "name": "PaymentMade",
      "type": "event"
    },
    {
      "anonymous": false,
      "inputs": [
        {
          "indexed": true,
          "internalType": "address",
          "name": "customerAddress",
          "type": "address"
        },
        {
          "indexed": false,
          "internalType": "uint256",
          "name": "fee",
          "type": "uint256"
        }
      ],
      "name": "RefundMade",
      "type": "event"
    },
    {
      "anonymous": false,
      "inputs": [
        {
          "indexed": true,
          "internalType": "address",
          "name": "owner",
          "type": "address"
        },
        {
          "indexed": false,
          "internalType": "uint256",
          "name": "amount",
          "type": "uint256"
        },
        {
          "indexed": false,
          "internalType": "uint256",
          "name": "date",
          "type": "uint256"
        }
      ],
      "name": "RewardsIssued",
      "type": "event"
    },
    {
      "anonymous": false,
      "inputs": [
        {
          "indexed": false,
          "internalType": "address",
          "name": "account",
          "type": "address"
        }
      ],
      "name": "Unpaused",
      "type": "event"
    },
    {
      "anonymous": false,
      "inputs": [
        {
          "indexed": false,
          "internalType": "string",
          "name": "description",
          "type": "string"
        },
        {
          "indexed": false,
          "internalType": "uint256",
          "name": "amount",
          "type": "uint256"
        }
      ],
      "name": "WithdrawnFromComp",
      "type": "event"
    },
    {
      "inputs": [],
      "name": "NumCustomers",
      "outputs": [
        {
          "internalType": "uint256",
          "name": "",
          "type": "uint256"
        }
      ],
      "stateMutability": "view",
      "type": "function"
    },
    {
      "inputs": [],
      "name": "cToken",
      "outputs": [
        {
          "internalType": "contract CErc20",
          "name": "",
          "type": "address"
        }
      ],
      "stateMutability": "view",
      "type": "function"
    },
    {
      "inputs": [],
      "name": "courseFee",
      "outputs": [
        {
          "internalType": "uint256",
          "name": "",
          "type": "uint256"
        }
      ],
      "stateMutability": "view",
      "type": "function"
    },
    {
      "inputs": [],
      "name": "courseNumberOfWeeks",
      "outputs": [
        {
          "internalType": "uint256",
          "name": "",
          "type": "uint256"
        }
      ],
      "stateMutability": "view",
      "type": "function"
    },
    {
      "inputs": [],
      "name": "endCourse",
      "outputs": [],
      "stateMutability": "nonpayable",
      "type": "function"
    },
    {
      "inputs": [
        {
          "internalType": "uint256",
          "name": "_courseFee",
          "type": "uint256"
        }
      ],
      "name": "enroll",
      "outputs": [],
      "stateMutability": "nonpayable",
      "type": "function"
    },
    {
      "inputs": [],
      "name": "enrollmentIsOpen",
      "outputs": [
        {
          "internalType": "bool",
          "name": "",
          "type": "bool"
        }
      ],
      "stateMutability": "view",
      "type": "function"
    },
    {
      "inputs": [],
      "name": "getCTokenBalance",
      "outputs": [
        {
          "internalType": "uint256",
          "name": "",
          "type": "uint256"
        }
      ],
      "stateMutability": "view",
      "type": "function"
    },
    {
      "inputs": [],
      "name": "getRewardsBalance",
      "outputs": [
        {
          "internalType": "uint256",
          "name": "",
          "type": "uint256"
        }
      ],
      "stateMutability": "view",
      "type": "function"
    },
    {
      "inputs": [],
      "name": "getUnderlyingBalance",
      "outputs": [
        {
          "internalType": "uint256",
          "name": "",
          "type": "uint256"
        }
      ],
      "stateMutability": "view",
      "type": "function"
    },
    {
      "inputs": [],
      "name": "getUserBalance",
      "outputs": [
        {
          "internalType": "uint256",
          "name": "",
          "type": "uint256"
        }
      ],
      "stateMutability": "view",
      "type": "function"
    },
    {
      "inputs": [
        {
          "internalType": "address",
          "name": "_underlyingAddress",
          "type": "address"
        },
        {
          "internalType": "address",
          "name": "_cTokenAddress",
          "type": "address"
        },
        {
          "internalType": "uint256",
          "name": "_fee",
          "type": "uint256"
        },
        {
          "internalType": "uint256",
          "name": "_courseNumberOfWeeks",
          "type": "uint256"
        },
        {
          "internalType": "bool",
          "name": "_enrollmentIsOpen",
          "type": "bool"
        },
        {
          "internalType": "address",
          "name": "_owner",
          "type": "address"
        }
      ],
      "name": "initialize",
      "outputs": [],
      "stateMutability": "nonpayable",
      "type": "function"
    },
    {
      "inputs": [
        {
          "internalType": "address",
          "name": "",
          "type": "address"
        }
      ],
      "name": "isCustomerPaid",
      "outputs": [
        {
          "internalType": "bool",
          "name": "",
          "type": "bool"
        }
      ],
      "stateMutability": "view",
      "type": "function"
    },
    {
      "inputs": [],
      "name": "owner",
      "outputs": [
        {
          "internalType": "address",
          "name": "",
          "type": "address"
        }
      ],
      "stateMutability": "view",
      "type": "function"
    },
    {
      "inputs": [],
      "name": "pauseProtocol",
      "outputs": [],
      "stateMutability": "nonpayable",
      "type": "function"
    },
    {
      "inputs": [],
      "name": "paused",
      "outputs": [
        {
          "internalType": "bool",
          "name": "",
          "type": "bool"
        }
      ],
      "stateMutability": "view",
      "type": "function"
    },
    {
      "inputs": [],
      "name": "refund",
      "outputs": [],
      "stateMutability": "nonpayable",
      "type": "function"
    },
    {
      "inputs": [],
      "name": "startCourse",
      "outputs": [],
      "stateMutability": "nonpayable",
      "type": "function"
    },
    {
      "inputs": [],
      "name": "underlying",
      "outputs": [
        {
          "internalType": "contract IERC20",
          "name": "",
          "type": "address"
        }
      ],
      "stateMutability": "view",
      "type": "function"
    },
    {
      "inputs": [],
      "name": "unlockTimestamp",
      "outputs": [
        {
          "internalType": "uint256",
          "name": "",
          "type": "uint256"
        }
      ],
      "stateMutability": "view",
      "type": "function"
    },
    {
      "inputs": [],
      "name": "unpauseProtocol",
      "outputs": [],
      "stateMutability": "nonpayable",
      "type": "function"
    },
    {
      "inputs": [
        {
          "internalType": "uint256",
          "name": "_courseNumberOfWeeks",
          "type": "uint256"
        }
      ],
      "name": "updateUnlockTimestamp",
      "outputs": [],
      "stateMutability": "nonpayable",
      "type": "function"
    },
    {
      "inputs": [
        {
          "internalType": "address",
          "name": "",
          "type": "address"
        }
      ],
      "name": "userBalances",
      "outputs": [
        {
          "internalType": "uint256",
          "name": "",
          "type": "uint256"
        }
      ],
      "stateMutability": "view",
      "type": "function"
    }
  ],
  "bytecode": "0x608060405234801561001057600080fd5b50612eb0806100206000396000f3fe608060405234801561001057600080fd5b506004361061014d5760003560e01c80638da5cb5b116100c3578063defed8211161007c578063defed82114610336578063e1261ac214610340578063e2c674391461035e578063f57d585b1461037c578063f93b6be514610398578063fe1a9f0f146103a25761014d565b80638da5cb5b146102845780638eae8854146102a2578063aa082a9d146102c0578063b7013dc1146102de578063dbf62489146102fc578063dee92a64146103065761014d565b80635c975abb116101155780635c975abb146101d0578063645dcac8146101ee57806369e527da1461020c5780636e6b79841461022a5780636f307dc314610248578063858a135d146102665761014d565b806303b9a9ef1461015257806324d92e9f1461017057806326224c641461018c578063559fb87a146101bc578063590e1ae3146101c6575b600080fd5b61015a6103be565b6040516101679190612853565b60405180910390f35b61018a600480360381019061018591906121a9565b6103c4565b005b6101a660048036038101906101a19190612180565b6106a0565b6040516101b39190612853565b60405180910390f35b6101c46106b8565b005b6101ce61080d565b005b6101d8610bef565b6040516101e591906125c6565b60405180910390f35b6101f6610c06565b60405161020391906125c6565b60405180910390f35b610214610c19565b60405161022191906125e1565b60405180910390f35b610232610c3f565b60405161023f9190612853565b60405180910390f35b610250610c45565b60405161025d91906125fc565b60405180910390f35b61026e610c6b565b60405161027b9190612853565b60405180910390f35b61028c610ca5565b604051610299919061254b565b60405180910390f35b6102aa610ccb565b6040516102b79190612853565b60405180910390f35b6102c8610d7d565b6040516102d59190612853565b60405180910390f35b6102e6610d83565b6040516102f39190612853565b60405180910390f35b610304610dca565b005b610320600480360381019061031b9190612180565b610e64565b60405161032d91906125c6565b60405180910390f35b61033e610e84565b005b610348610fa1565b6040516103559190612853565b60405180910390f35b610366610fa7565b6040516103739190612853565b60405180910390f35b6103966004803603810190610391919061225b565b611059565b005b6103a06113d4565b005b6103bc60048036038101906103b7919061225b565b61146e565b005b609a5481565b600060019054906101000a900460ff16806103ea575060008054906101000a900460ff16155b610429576040517f08c379a000000000000000000000000000000000000000000000000000000000815260040161042090612737565b60405180910390fd5b60008060019054906101000a900460ff161590508015610479576001600060016101000a81548160ff02191690831515021790555060016000806101000a81548160ff0219169083151502179055505b600073ffffffffffffffffffffffffffffffffffffffff168773ffffffffffffffffffffffffffffffffffffffff1614156104e9576040517f08c379a00000000000000000000000000000000000000000000000000000000081526004016104e0906127c5565b60405180910390fd5b600073ffffffffffffffffffffffffffffffffffffffff168673ffffffffffffffffffffffffffffffffffffffff161415610559576040517f08c379a000000000000000000000000000000000000000000000000000000000815260040161055090612757565b60405180910390fd5b610561611528565b610569611611565b86609760006101000a81548173ffffffffffffffffffffffffffffffffffffffff021916908373ffffffffffffffffffffffffffffffffffffffff16021790555085609860006101000a81548173ffffffffffffffffffffffffffffffffffffffff021916908373ffffffffffffffffffffffffffffffffffffffff16021790555082609e60006101000a81548160ff02191690831515021790555084609b8190555083609d8190555062093a80609d5461062491906128fe565b4261062f91906128a8565b609c8190555081609960006101000a81548173ffffffffffffffffffffffffffffffffffffffff021916908373ffffffffffffffffffffffffffffffffffffffff16021790555080156106975760008060016101000a81548160ff0219169083151502179055505b50505050505050565b60a06020528060005260406000206000915090505481565b3373ffffffffffffffffffffffffffffffffffffffff16609960009054906101000a900473ffffffffffffffffffffffffffffffffffffffff1673ffffffffffffffffffffffffffffffffffffffff1614610748576040517f08c379a000000000000000000000000000000000000000000000000000000000815260040161073f90612777565b60405180910390fd5b60011515609e60009054906101000a900460ff1615151461079e576040517f08c379a000000000000000000000000000000000000000000000000000000000815260040161079590612617565b60405180910390fd5b60006107a8610fa7565b116107e8576040517f08c379a00000000000000000000000000000000000000000000000000000000081526004016107df906126d7565b60405180910390fd5b6107f06116f2565b6000609e60006101000a81548160ff021916908315150217905550565b609b5460a060003373ffffffffffffffffffffffffffffffffffffffff1673ffffffffffffffffffffffffffffffffffffffff1681526020019081526020016000205414610890576040517f08c379a000000000000000000000000000000000000000000000000000000000815260040161088790612677565b60405180910390fd5b600260015414156108d6576040517f08c379a00000000000000000000000000000000000000000000000000000000081526004016108cd90612833565b60405180910390fd5b6002600181905550609c54421015610923576040517f08c379a000000000000000000000000000000000000000000000000000000000815260040161091a906126b7565b60405180910390fd5b61092b610bef565b1561096b576040517f08c379a000000000000000000000000000000000000000000000000000000000815260040161096290612717565b60405180910390fd5b609b5460a060003373ffffffffffffffffffffffffffffffffffffffff1673ffffffffffffffffffffffffffffffffffffffff16815260200190815260200160002054146109ee576040517f08c379a00000000000000000000000000000000000000000000000000000000081526004016109e590612657565b60405180910390fd5b600060a060003373ffffffffffffffffffffffffffffffffffffffff1673ffffffffffffffffffffffffffffffffffffffff168152602001908152602001600020549050609760009054906101000a900473ffffffffffffffffffffffffffffffffffffffff1673ffffffffffffffffffffffffffffffffffffffff1663a9059cbb33836040518363ffffffff1660e01b8152600401610a8f92919061259d565b602060405180830381600087803b158015610aa957600080fd5b505af1158015610abd573d6000803e3d6000fd5b505050506040513d601f19601f82011682018060405250810190610ae19190612232565b50600060a060003373ffffffffffffffffffffffffffffffffffffffff1673ffffffffffffffffffffffffffffffffffffffff168152602001908152602001600020819055506000609f60003373ffffffffffffffffffffffffffffffffffffffff1673ffffffffffffffffffffffffffffffffffffffff16815260200190815260200160002060006101000a81548160ff021916908315150217905550609a6000815480929190610b9290612a1c565b91905055503373ffffffffffffffffffffffffffffffffffffffff167f6c7e671ec35e723fdd21e81a2b98109fd74878e3233ac1c04dec9a61864c1cbd82604051610bdd9190612853565b60405180910390a25060018081905550565b6000606560009054906101000a900460ff16905090565b609e60009054906101000a900460ff1681565b609860009054906101000a900473ffffffffffffffffffffffffffffffffffffffff1681565b609b5481565b609760009054906101000a900473ffffffffffffffffffffffffffffffffffffffff1681565b600080610c76610fa7565b90506000609b54609a54610c8a91906128fe565b905060008183610c9a9190612958565b905080935050505090565b609960009054906101000a900473ffffffffffffffffffffffffffffffffffffffff1681565b6000609860009054906101000a900473ffffffffffffffffffffffffffffffffffffffff1673ffffffffffffffffffffffffffffffffffffffff166370a08231306040518263ffffffff1660e01b8152600401610d28919061254b565b60206040518083038186803b158015610d4057600080fd5b505afa158015610d54573d6000803e3d6000fd5b505050506040513d601f19601f82011682018060405250810190610d789190612284565b905090565b609c5481565b600060a060003373ffffffffffffffffffffffffffffffffffffffff1673ffffffffffffffffffffffffffffffffffffffff16815260200190815260200160002054905090565b3373ffffffffffffffffffffffffffffffffffffffff16609960009054906101000a900473ffffffffffffffffffffffffffffffffffffffff1673ffffffffffffffffffffffffffffffffffffffff1614610e5a576040517f08c379a0000000000000000000000000000000000000000000000000000000008152600401610e5190612777565b60405180910390fd5b610e626119a3565b565b609f6020528060005260406000206000915054906101000a900460ff1681565b3373ffffffffffffffffffffffffffffffffffffffff16609960009054906101000a900473ffffffffffffffffffffffffffffffffffffffff1673ffffffffffffffffffffffffffffffffffffffff1614610f14576040517f08c379a0000000000000000000000000000000000000000000000000000000008152600401610f0b90612777565b60405180910390fd5b60001515609e60009054906101000a900460ff16151514610f6a576040517f08c379a0000000000000000000000000000000000000000000000000000000008152600401610f61906126f7565b60405180910390fd5b610f72611a46565b610f7a611c25565b610f84600061146e565b6001609e60006101000a81548160ff021916908315150217905550565b609d5481565b6000609760009054906101000a900473ffffffffffffffffffffffffffffffffffffffff1673ffffffffffffffffffffffffffffffffffffffff166370a08231306040518263ffffffff1660e01b8152600401611004919061254b565b60206040518083038186803b15801561101c57600080fd5b505afa158015611030573d6000803e3d6000fd5b505050506040513d601f19601f820116820180604052508101906110549190612284565b905090565b609f60003373ffffffffffffffffffffffffffffffffffffffff1673ffffffffffffffffffffffffffffffffffffffff16815260200190815260200160002060009054906101000a900460ff16156110e6576040517f08c379a00000000000000000000000000000000000000000000000000000000081526004016110dd906127e5565b60405180910390fd5b6002600154141561112c576040517f08c379a000000000000000000000000000000000000000000000000000000000815260040161112390612833565b60405180910390fd5b600260018190555061113c610bef565b1561117c576040517f08c379a000000000000000000000000000000000000000000000000000000000815260040161117390612717565b60405180910390fd5b609b5481146111c0576040517f08c379a00000000000000000000000000000000000000000000000000000000081526004016111b790612697565b60405180910390fd5b60011515609e60009054906101000a900460ff16151514611216576040517f08c379a000000000000000000000000000000000000000000000000000000000815260040161120d90612617565b60405180910390fd5b609760009054906101000a900473ffffffffffffffffffffffffffffffffffffffff1673ffffffffffffffffffffffffffffffffffffffff166323b872dd3330846040518463ffffffff1660e01b815260040161127593929190612566565b602060405180830381600087803b15801561128f57600080fd5b505af11580156112a3573d6000803e3d6000fd5b505050506040513d601f19601f820116820180604052508101906112c79190612232565b508060a060003373ffffffffffffffffffffffffffffffffffffffff1673ffffffffffffffffffffffffffffffffffffffff168152602001908152602001600020819055506001609f60003373ffffffffffffffffffffffffffffffffffffffff1673ffffffffffffffffffffffffffffffffffffffff16815260200190815260200160002060006101000a81548160ff021916908315150217905550609a600081548092919061137790612a46565b91905055503373ffffffffffffffffffffffffffffffffffffffff167f3a2d0e41c506b136330c6e5e0295ccbf0966daece99bfe7c89020cc01dbfb8d6826040516113c29190612853565b60405180910390a26001808190555050565b3373ffffffffffffffffffffffffffffffffffffffff16609960009054906101000a900473ffffffffffffffffffffffffffffffffffffffff1673ffffffffffffffffffffffffffffffffffffffff1614611464576040517f08c379a000000000000000000000000000000000000000000000000000000000815260040161145b90612777565b60405180910390fd5b61146c611dc0565b565b3373ffffffffffffffffffffffffffffffffffffffff16609960009054906101000a900473ffffffffffffffffffffffffffffffffffffffff1673ffffffffffffffffffffffffffffffffffffffff16146114fe576040517f08c379a00000000000000000000000000000000000000000000000000000000081526004016114f590612777565b60405180910390fd5b80609d81905550603c609d5461151491906128fe565b4261151f91906128a8565b609c8190555050565b600060019054906101000a900460ff168061154e575060008054906101000a900460ff16155b61158d576040517f08c379a000000000000000000000000000000000000000000000000000000000815260040161158490612737565b60405180910390fd5b60008060019054906101000a900460ff1615905080156115dd576001600060016101000a81548160ff02191690831515021790555060016000806101000a81548160ff0219169083151502179055505b6115e5611e62565b6115ed611f3b565b801561160e5760008060016101000a81548160ff0219169083151502179055505b50565b600060019054906101000a900460ff1680611637575060008054906101000a900460ff16155b611676576040517f08c379a000000000000000000000000000000000000000000000000000000000815260040161166d90612737565b60405180910390fd5b60008060019054906101000a900460ff1615905080156116c6576001600060016101000a81548160ff02191690831515021790555060016000806101000a81548160ff0219169083151502179055505b6116ce61202f565b80156116ef5760008060016101000a81548160ff0219169083151502179055505b50565b6116fa610bef565b1561173a576040517f08c379a000000000000000000000000000000000000000000000000000000000815260040161173190612717565b60405180910390fd5b6000609760009054906101000a900473ffffffffffffffffffffffffffffffffffffffff1673ffffffffffffffffffffffffffffffffffffffff166370a08231306040518263ffffffff1660e01b8152600401611797919061254b565b60206040518083038186803b1580156117af57600080fd5b505afa1580156117c3573d6000803e3d6000fd5b505050506040513d601f19601f820116820180604052508101906117e79190612284565b9050609760009054906101000a900473ffffffffffffffffffffffffffffffffffffffff1673ffffffffffffffffffffffffffffffffffffffff1663095ea7b3609860009054906101000a900473ffffffffffffffffffffffffffffffffffffffff16836040518363ffffffff1660e01b815260040161186892919061259d565b602060405180830381600087803b15801561188257600080fd5b505af1158015611896573d6000803e3d6000fd5b505050506040513d601f19601f820116820180604052508101906118ba9190612232565b50609860009054906101000a900473ffffffffffffffffffffffffffffffffffffffff1673ffffffffffffffffffffffffffffffffffffffff1663a0712d68826040518263ffffffff1660e01b81526004016119169190612853565b602060405180830381600087803b15801561193057600080fd5b505af1158015611944573d6000803e3d6000fd5b505050506040513d601f19601f820116820180604052508101906119689190612284565b507f3877bfe58bb898397f51c7b75b78bf3b1ee555f652fef7d3ccf0127f7942f5ad816040516119989190612805565b60405180910390a150565b6119ab610bef565b156119eb576040517f08c379a00000000000000000000000000000000000000000000000000000000081526004016119e290612717565b60405180910390fd5b6001606560006101000a81548160ff0219169083151502179055507f62e78cea01bee320cd4e420270b5ea74000d11b0c9f74754ebdbfc544b05a258611a2f61210f565b604051611a3c919061254b565b60405180910390a1565b611a4e610bef565b15611a8e576040517f08c379a0000000000000000000000000000000000000000000000000000000008152600401611a8590612717565b60405180910390fd5b6000609860009054906101000a900473ffffffffffffffffffffffffffffffffffffffff1673ffffffffffffffffffffffffffffffffffffffff166370a08231306040518263ffffffff1660e01b8152600401611aeb919061254b565b60206040518083038186803b158015611b0357600080fd5b505afa158015611b17573d6000803e3d6000fd5b505050506040513d601f19601f82011682018060405250810190611b3b9190612284565b9050609860009054906101000a900473ffffffffffffffffffffffffffffffffffffffff1673ffffffffffffffffffffffffffffffffffffffff1663db006a75826040518263ffffffff1660e01b8152600401611b989190612853565b602060405180830381600087803b158015611bb257600080fd5b505af1158015611bc6573d6000803e3d6000fd5b505050506040513d601f19601f82011682018060405250810190611bea9190612284565b507fca174cd434bbb50dc3854cb75b616b1933214cdea8670e0a26da229506ef60fb81604051611c1a9190612797565b60405180910390a150565b611c2d610bef565b15611c6d576040517f08c379a0000000000000000000000000000000000000000000000000000000008152600401611c6490612717565b60405180910390fd5b6000611c77610c6b565b9050609760009054906101000a900473ffffffffffffffffffffffffffffffffffffffff1673ffffffffffffffffffffffffffffffffffffffff1663a9059cbb609960009054906101000a900473ffffffffffffffffffffffffffffffffffffffff16836040518363ffffffff1660e01b8152600401611cf892919061259d565b602060405180830381600087803b158015611d1257600080fd5b505af1158015611d26573d6000803e3d6000fd5b505050506040513d601f19601f82011682018060405250810190611d4a9190612232565b50609960009054906101000a900473ffffffffffffffffffffffffffffffffffffffff1673ffffffffffffffffffffffffffffffffffffffff167f38475976b17b8b7702ce63671a2863beb27ea1496298807bc2092eea3764c48c8242604051611db592919061286e565b60405180910390a250565b611dc8610bef565b611e07576040517f08c379a0000000000000000000000000000000000000000000000000000000008152600401611dfe90612637565b60405180910390fd5b6000606560006101000a81548160ff0219169083151502179055507f5db9ee0a495bf2e6ff9c91a7834c1ba4fdd244a5e8aa4e537bd38aeae4b073aa611e4b61210f565b604051611e58919061254b565b60405180910390a1565b600060019054906101000a900460ff1680611e88575060008054906101000a900460ff16155b611ec7576040517f08c379a0000000000000000000000000000000000000000000000000000000008152600401611ebe90612737565b60405180910390fd5b60008060019054906101000a900460ff161590508015611f17576001600060016101000a81548160ff02191690831515021790555060016000806101000a81548160ff0219169083151502179055505b8015611f385760008060016101000a81548160ff0219169083151502179055505b50565b600060019054906101000a900460ff1680611f61575060008054906101000a900460ff16155b611fa0576040517f08c379a0000000000000000000000000000000000000000000000000000000008152600401611f9790612737565b60405180910390fd5b60008060019054906101000a900460ff161590508015611ff0576001600060016101000a81548160ff02191690831515021790555060016000806101000a81548160ff0219169083151502179055505b6000606560006101000a81548160ff021916908315150217905550801561202c5760008060016101000a81548160ff0219169083151502179055505b50565b600060019054906101000a900460ff1680612055575060008054906101000a900460ff16155b612094576040517f08c379a000000000000000000000000000000000000000000000000000000000815260040161208b90612737565b60405180910390fd5b60008060019054906101000a900460ff1615905080156120e4576001600060016101000a81548160ff02191690831515021790555060016000806101000a81548160ff0219169083151502179055505b60018081905550801561210c5760008060016101000a81548160ff0219169083151502179055505b50565b600033905090565b60008135905061212681612e35565b92915050565b60008135905061213b81612e4c565b92915050565b60008151905061215081612e4c565b92915050565b60008135905061216581612e63565b92915050565b60008151905061217a81612e63565b92915050565b60006020828403121561219257600080fd5b60006121a084828501612117565b91505092915050565b60008060008060008060c087890312156121c257600080fd5b60006121d089828a01612117565b96505060206121e189828a01612117565b95505060406121f289828a01612156565b945050606061220389828a01612156565b935050608061221489828a0161212c565b92505060a061222589828a01612117565b9150509295509295509295565b60006020828403121561224457600080fd5b600061225284828501612141565b91505092915050565b60006020828403121561226d57600080fd5b600061227b84828501612156565b91505092915050565b60006020828403121561229657600080fd5b60006122a48482850161216b565b91505092915050565b6122b68161298c565b82525050565b6122c58161299e565b82525050565b6122d4816129d4565b82525050565b6122e3816129f8565b82525050565b60006122f6601a83612897565b915061230182612abe565b602082019050919050565b6000612319601483612897565b915061232482612ae7565b602082019050919050565b600061233c601783612897565b915061234782612b10565b602082019050919050565b600061235f601083612897565b915061236a82612b39565b602082019050919050565b6000612382602183612897565b915061238d82612b62565b604082019050919050565b60006123a5602383612897565b91506123b082612bb1565b604082019050919050565b60006123c8602d83612897565b91506123d382612c00565b604082019050919050565b60006123eb601883612897565b91506123f682612c4f565b602082019050919050565b600061240e601083612897565b915061241982612c78565b602082019050919050565b6000612431602e83612897565b915061243c82612ca1565b604082019050919050565b6000612454601a83612897565b915061245f82612cf0565b602082019050919050565b6000612477601783612897565b915061248282612d19565b602082019050919050565b600061249a601983612897565b91506124a582612d42565b602082019050919050565b60006124bd602483612897565b91506124c882612d6b565b604082019050919050565b60006124e0601d83612897565b91506124eb82612dba565b602082019050919050565b6000612503601283612897565b915061250e82612de3565b602082019050919050565b6000612526601f83612897565b915061253182612e0c565b602082019050919050565b612545816129ca565b82525050565b600060208201905061256060008301846122ad565b92915050565b600060608201905061257b60008301866122ad565b61258860208301856122ad565b612595604083018461253c565b949350505050565b60006040820190506125b260008301856122ad565b6125bf602083018461253c565b9392505050565b60006020820190506125db60008301846122bc565b92915050565b60006020820190506125f660008301846122cb565b92915050565b600060208201905061261160008301846122da565b92915050565b60006020820190508181036000830152612630816122e9565b9050919050565b600060208201905081810360008301526126508161230c565b9050919050565b600060208201905081810360008301526126708161232f565b9050919050565b6000602082019050818103600083015261269081612352565b9050919050565b600060208201905081810360008301526126b081612375565b9050919050565b600060208201905081810360008301526126d081612398565b9050919050565b600060208201905081810360008301526126f0816123bb565b9050919050565b60006020820190508181036000830152612710816123de565b9050919050565b6000602082019050818103600083015261273081612401565b9050919050565b6000602082019050818103600083015261275081612424565b9050919050565b6000602082019050818103600083015261277081612447565b9050919050565b600060208201905081810360008301526127908161246a565b9050919050565b600060408201905081810360008301526127b08161248d565b90506127bf602083018461253c565b92915050565b600060208201905081810360008301526127de816124b0565b9050919050565b600060208201905081810360008301526127fe816124d3565b9050919050565b6000604082019050818103600083015261281e816124f6565b905061282d602083018461253c565b92915050565b6000602082019050818103600083015261284c81612519565b9050919050565b6000602082019050612868600083018461253c565b92915050565b6000604082019050612883600083018561253c565b612890602083018461253c565b9392505050565b600082825260208201905092915050565b60006128b3826129ca565b91506128be836129ca565b9250827fffffffffffffffffffffffffffffffffffffffffffffffffffffffffffffffff038211156128f3576128f2612a8f565b5b828201905092915050565b6000612909826129ca565b9150612914836129ca565b9250817fffffffffffffffffffffffffffffffffffffffffffffffffffffffffffffffff048311821515161561294d5761294c612a8f565b5b828202905092915050565b6000612963826129ca565b915061296e836129ca565b92508282101561298157612980612a8f565b5b828203905092915050565b6000612997826129aa565b9050919050565b60008115159050919050565b600073ffffffffffffffffffffffffffffffffffffffff82169050919050565b6000819050919050565b60006129df826129e6565b9050919050565b60006129f1826129aa565b9050919050565b6000612a0382612a0a565b9050919050565b6000612a15826129aa565b9050919050565b6000612a27826129ca565b91506000821415612a3b57612a3a612a8f565b5b600182039050919050565b6000612a51826129ca565b91507fffffffffffffffffffffffffffffffffffffffffffffffffffffffffffffffff821415612a8457612a83612a8f565b5b600182019050919050565b7f4e487b7100000000000000000000000000000000000000000000000000000000600052601160045260246000fd5b7f436f757273652068617320616c72656164792073746172746564000000000000600082015250565b7f5061757361626c653a206e6f7420706175736564000000000000000000000000600082015250565b7f796f7520646f6e74206861766520612062616c616e6365000000000000000000600082015250565b7f796f75206469646e7420656e726f6c6c00000000000000000000000000000000600082015250565b7f616d6f756e74206973206e6f7420657175616c20746f20636f7572736520666560008201527f6500000000000000000000000000000000000000000000000000000000000000602082015250565b7f62616c616e6365206973206c6f636b656420647572696e672074686520436f7560008201527f7273650000000000000000000000000000000000000000000000000000000000602082015250565b7f436f6e747261637420646f65736e74206861766520556e6465726c79696e672060008201527f746f6b656e2062616c616e636500000000000000000000000000000000000000602082015250565b7f436f757273652068617320616c726561647920656e6465640000000000000000600082015250565b7f5061757361626c653a2070617573656400000000000000000000000000000000600082015250565b7f496e697469616c697a61626c653a20636f6e747261637420697320616c72656160008201527f647920696e697469616c697a6564000000000000000000000000000000000000602082015250565b7f63546f6b656e20416464726573732063616e6e6f742062652030000000000000600082015250565b7f63616c6c6572206973206e6f7420746865206f776e6572000000000000000000600082015250565b7f46756e64732077697468647261776e2066726f6d20436f6d7000000000000000600082015250565b7f556e6465726c79696e6720546f6b656e20416464726573732063616e6e6f742060008201527f6265203000000000000000000000000000000000000000000000000000000000602082015250565b7f7573657220616c7265616479207061696420636f6e74656e7420666565000000600082015250565b7f46756e64732073656e7420746f20436f6d700000000000000000000000000000600082015250565b7f5265656e7472616e637947756172643a207265656e7472616e742063616c6c00600082015250565b612e3e8161298c565b8114612e4957600080fd5b50565b612e558161299e565b8114612e6057600080fd5b50565b612e6c816129ca565b8114612e7757600080fd5b5056fea2646970667358221220021987f1f256e5108c23d7dee345b5ec47af4f3b344ca10808cb2c73b7bc0e8d64736f6c63430008040033",
  "linkReferences": {},
  "deployedLinkReferences": {}
}