{
  "_format": "hh-sol-artifact-1",
  "contractName": "Course",
  "sourceName": "contracts/Course.sol",
  "abi": [
    {
      "anonymous": false,
      "inputs": [
        {
          "indexed": false,
          "internalType": "string",
          "name": "description",
          "type": "string"
        },
        {
          "indexed": false,
          "internalType": "uint256",
          "name": "amount",
          "type": "uint256"
        }
      ],
      "name": "InvestToComp",
      "type": "event"
    },
    {
      "anonymous": false,
      "inputs": [
        {
          "indexed": false,
          "internalType": "address",
          "name": "account",
          "type": "address"
        }
      ],
      "name": "Paused",
      "type": "event"
    },
    {
      "anonymous": false,
      "inputs": [
        {
          "indexed": true,
          "internalType": "address",
          "name": "userAddress",
          "type": "address"
        },
        {
          "indexed": false,
          "internalType": "uint256",
          "name": "fee",
          "type": "uint256"
        }
      ],
      "name": "PaymentMade",
      "type": "event"
    },
    {
      "anonymous": false,
      "inputs": [
        {
          "indexed": true,
          "internalType": "address",
          "name": "customerAddress",
          "type": "address"
        },
        {
          "indexed": false,
          "internalType": "uint256",
          "name": "fee",
          "type": "uint256"
        }
      ],
      "name": "RefundMade",
      "type": "event"
    },
    {
      "anonymous": false,
      "inputs": [
        {
          "indexed": true,
          "internalType": "address",
          "name": "owner",
          "type": "address"
        },
        {
          "indexed": false,
          "internalType": "uint256",
          "name": "amount",
          "type": "uint256"
        },
        {
          "indexed": false,
          "internalType": "uint256",
          "name": "date",
          "type": "uint256"
        }
      ],
      "name": "RewardsIssued",
      "type": "event"
    },
    {
      "anonymous": false,
      "inputs": [
        {
          "indexed": false,
          "internalType": "address",
          "name": "account",
          "type": "address"
        }
      ],
      "name": "Unpaused",
      "type": "event"
    },
    {
      "anonymous": false,
      "inputs": [
        {
          "indexed": false,
          "internalType": "string",
          "name": "description",
          "type": "string"
        },
        {
          "indexed": false,
          "internalType": "uint256",
          "name": "amount",
          "type": "uint256"
        }
      ],
      "name": "WithdrawnFromComp",
      "type": "event"
    },
    {
      "inputs": [],
      "name": "NumCustomers",
      "outputs": [
        {
          "internalType": "uint256",
          "name": "",
          "type": "uint256"
        }
      ],
      "stateMutability": "view",
      "type": "function"
    },
    {
      "inputs": [],
      "name": "cToken",
      "outputs": [
        {
          "internalType": "contract CErc20",
          "name": "",
          "type": "address"
        }
      ],
      "stateMutability": "view",
      "type": "function"
    },
    {
      "inputs": [],
      "name": "courseFee",
      "outputs": [
        {
          "internalType": "uint256",
          "name": "",
          "type": "uint256"
        }
      ],
      "stateMutability": "view",
      "type": "function"
    },
    {
      "inputs": [],
      "name": "courseNumberOfWeeks",
      "outputs": [
        {
          "internalType": "uint256",
          "name": "",
          "type": "uint256"
        }
      ],
      "stateMutability": "view",
      "type": "function"
    },
    {
      "inputs": [],
      "name": "endCourse",
      "outputs": [],
      "stateMutability": "nonpayable",
      "type": "function"
    },
    {
      "inputs": [
        {
          "internalType": "uint256",
          "name": "_courseFee",
          "type": "uint256"
        }
      ],
      "name": "enroll",
      "outputs": [],
      "stateMutability": "nonpayable",
      "type": "function"
    },
    {
      "inputs": [],
      "name": "enrollmentIsOpen",
      "outputs": [
        {
          "internalType": "bool",
          "name": "",
          "type": "bool"
        }
      ],
      "stateMutability": "view",
      "type": "function"
    },
    {
      "inputs": [],
      "name": "getCTokenBalance",
      "outputs": [
        {
          "internalType": "uint256",
          "name": "",
          "type": "uint256"
        }
      ],
      "stateMutability": "view",
      "type": "function"
    },
    {
      "inputs": [],
      "name": "getRewardsBalance",
      "outputs": [
        {
          "internalType": "uint256",
          "name": "",
          "type": "uint256"
        }
      ],
      "stateMutability": "view",
      "type": "function"
    },
    {
      "inputs": [],
      "name": "getUnderlyingBalance",
      "outputs": [
        {
          "internalType": "uint256",
          "name": "",
          "type": "uint256"
        }
      ],
      "stateMutability": "view",
      "type": "function"
    },
    {
      "inputs": [],
      "name": "getUserBalance",
      "outputs": [
        {
          "internalType": "uint256",
          "name": "",
          "type": "uint256"
        }
      ],
      "stateMutability": "view",
      "type": "function"
    },
    {
      "inputs": [
        {
          "internalType": "address",
          "name": "_underlyingAddress",
          "type": "address"
        },
        {
          "internalType": "address",
          "name": "_cTokenAddress",
          "type": "address"
        },
        {
          "internalType": "uint256",
          "name": "_fee",
          "type": "uint256"
        },
        {
          "internalType": "uint256",
          "name": "_courseNumberOfWeeks",
          "type": "uint256"
        },
        {
          "internalType": "bool",
          "name": "_enrollmentIsOpen",
          "type": "bool"
        },
        {
          "internalType": "address",
          "name": "_owner",
          "type": "address"
        }
      ],
      "name": "initialize",
      "outputs": [],
      "stateMutability": "nonpayable",
      "type": "function"
    },
    {
      "inputs": [
        {
          "internalType": "address",
          "name": "",
          "type": "address"
        }
      ],
      "name": "isCustomerPaid",
      "outputs": [
        {
          "internalType": "bool",
          "name": "",
          "type": "bool"
        }
      ],
      "stateMutability": "view",
      "type": "function"
    },
    {
      "inputs": [],
      "name": "owner",
      "outputs": [
        {
          "internalType": "address",
          "name": "",
          "type": "address"
        }
      ],
      "stateMutability": "view",
      "type": "function"
    },
    {
      "inputs": [],
      "name": "pauseProtocol",
      "outputs": [],
      "stateMutability": "nonpayable",
      "type": "function"
    },
    {
      "inputs": [],
      "name": "paused",
      "outputs": [
        {
          "internalType": "bool",
          "name": "",
          "type": "bool"
        }
      ],
      "stateMutability": "view",
      "type": "function"
    },
    {
      "inputs": [],
      "name": "refund",
      "outputs": [],
      "stateMutability": "nonpayable",
      "type": "function"
    },
    {
      "inputs": [],
      "name": "startCourse",
      "outputs": [],
      "stateMutability": "nonpayable",
      "type": "function"
    },
    {
      "inputs": [],
      "name": "underlying",
      "outputs": [
        {
          "internalType": "contract IERC20",
          "name": "",
          "type": "address"
        }
      ],
      "stateMutability": "view",
      "type": "function"
    },
    {
      "inputs": [],
      "name": "unlockTimestamp",
      "outputs": [
        {
          "internalType": "uint256",
          "name": "",
          "type": "uint256"
        }
      ],
      "stateMutability": "view",
      "type": "function"
    },
    {
      "inputs": [],
      "name": "unpauseProtocol",
      "outputs": [],
      "stateMutability": "nonpayable",
      "type": "function"
    },
    {
      "inputs": [
        {
          "internalType": "uint256",
          "name": "_courseNumberOfWeeks",
          "type": "uint256"
        }
      ],
      "name": "updateUnlockTimestamp",
      "outputs": [],
      "stateMutability": "nonpayable",
      "type": "function"
    },
    {
      "inputs": [
        {
          "internalType": "address",
          "name": "",
          "type": "address"
        }
      ],
      "name": "userBalances",
      "outputs": [
        {
          "internalType": "uint256",
          "name": "",
          "type": "uint256"
        }
      ],
      "stateMutability": "view",
      "type": "function"
    }
  ],
  "bytecode": "0x608060405234801561001057600080fd5b50612dca806100206000396000f3fe608060405234801561001057600080fd5b506004361061014d5760003560e01c80638da5cb5b116100c3578063defed8211161007c578063defed82114610336578063e1261ac214610340578063e2c674391461035e578063f57d585b1461037c578063f93b6be514610398578063fe1a9f0f146103a25761014d565b80638da5cb5b146102845780638eae8854146102a2578063aa082a9d146102c0578063b7013dc1146102de578063dbf62489146102fc578063dee92a64146103065761014d565b80635c975abb116101155780635c975abb146101d0578063645dcac8146101ee57806369e527da1461020c5780636e6b79841461022a5780636f307dc314610248578063858a135d146102665761014d565b806303b9a9ef1461015257806324d92e9f1461017057806326224c641461018c578063559fb87a146101bc578063590e1ae3146101c6575b600080fd5b61015a6103be565b60405161016791906127bc565b60405180910390f35b61018a60048036038101906101859190612155565b6103c4565b005b6101a660048036038101906101a1919061212c565b6106a0565b6040516101b391906127bc565b60405180910390f35b6101c46106b8565b005b6101ce6107c3565b005b6101d8610ba5565b6040516101e5919061254f565b60405180910390f35b6101f6610bbc565b604051610203919061254f565b60405180910390f35b610214610bcf565b604051610221919061256a565b60405180910390f35b610232610bf5565b60405161023f91906127bc565b60405180910390f35b610250610bfb565b60405161025d9190612585565b60405180910390f35b61026e610c21565b60405161027b91906127bc565b60405180910390f35b61028c610c5b565b60405161029991906124d4565b60405180910390f35b6102aa610c81565b6040516102b791906127bc565b60405180910390f35b6102c8610d33565b6040516102d591906127bc565b60405180910390f35b6102e6610d39565b6040516102f391906127bc565b60405180910390f35b610304610d80565b005b610320600480360381019061031b919061212c565b610e1a565b60405161032d919061254f565b60405180910390f35b61033e610e3a565b005b610348610f4d565b60405161035591906127bc565b60405180910390f35b610366610f53565b60405161037391906127bc565b60405180910390f35b61039660048036038101906103919190612207565b611005565b005b6103a0611380565b005b6103bc60048036038101906103b79190612207565b61141a565b005b609a5481565b600060019054906101000a900460ff16806103ea575060008054906101000a900460ff16155b610429576040517f08c379a0000000000000000000000000000000000000000000000000000000008152600401610420906126a0565b60405180910390fd5b60008060019054906101000a900460ff161590508015610479576001600060016101000a81548160ff02191690831515021790555060016000806101000a81548160ff0219169083151502179055505b600073ffffffffffffffffffffffffffffffffffffffff168773ffffffffffffffffffffffffffffffffffffffff1614156104e9576040517f08c379a00000000000000000000000000000000000000000000000000000000081526004016104e09061272e565b60405180910390fd5b600073ffffffffffffffffffffffffffffffffffffffff168673ffffffffffffffffffffffffffffffffffffffff161415610559576040517f08c379a0000000000000000000000000000000000000000000000000000000008152600401610550906126c0565b60405180910390fd5b6105616114d4565b6105696115bd565b86609760006101000a81548173ffffffffffffffffffffffffffffffffffffffff021916908373ffffffffffffffffffffffffffffffffffffffff16021790555085609860006101000a81548173ffffffffffffffffffffffffffffffffffffffff021916908373ffffffffffffffffffffffffffffffffffffffff16021790555082609e60006101000a81548160ff02191690831515021790555084609b8190555083609d8190555062093a80609d546106249190612867565b4261062f9190612811565b609c8190555081609960006101000a81548173ffffffffffffffffffffffffffffffffffffffff021916908373ffffffffffffffffffffffffffffffffffffffff16021790555080156106975760008060016101000a81548160ff0219169083151502179055505b50505050505050565b60a06020528060005260406000206000915090505481565b3373ffffffffffffffffffffffffffffffffffffffff16609960009054906101000a900473ffffffffffffffffffffffffffffffffffffffff1673ffffffffffffffffffffffffffffffffffffffff1614610748576040517f08c379a000000000000000000000000000000000000000000000000000000000815260040161073f906126e0565b60405180910390fd5b60011515609e60009054906101000a900460ff1615151461079e576040517f08c379a0000000000000000000000000000000000000000000000000000000008152600401610795906125a0565b60405180910390fd5b6107a661169e565b6000609e60006101000a81548160ff021916908315150217905550565b609b5460a060003373ffffffffffffffffffffffffffffffffffffffff1673ffffffffffffffffffffffffffffffffffffffff1681526020019081526020016000205414610846576040517f08c379a000000000000000000000000000000000000000000000000000000000815260040161083d90612600565b60405180910390fd5b6002600154141561088c576040517f08c379a00000000000000000000000000000000000000000000000000000000081526004016108839061279c565b60405180910390fd5b6002600181905550609c544210156108d9576040517f08c379a00000000000000000000000000000000000000000000000000000000081526004016108d090612640565b60405180910390fd5b6108e1610ba5565b15610921576040517f08c379a000000000000000000000000000000000000000000000000000000000815260040161091890612680565b60405180910390fd5b609b5460a060003373ffffffffffffffffffffffffffffffffffffffff1673ffffffffffffffffffffffffffffffffffffffff16815260200190815260200160002054146109a4576040517f08c379a000000000000000000000000000000000000000000000000000000000815260040161099b906125e0565b60405180910390fd5b600060a060003373ffffffffffffffffffffffffffffffffffffffff1673ffffffffffffffffffffffffffffffffffffffff168152602001908152602001600020549050609760009054906101000a900473ffffffffffffffffffffffffffffffffffffffff1673ffffffffffffffffffffffffffffffffffffffff1663a9059cbb33836040518363ffffffff1660e01b8152600401610a45929190612526565b602060405180830381600087803b158015610a5f57600080fd5b505af1158015610a73573d6000803e3d6000fd5b505050506040513d601f19601f82011682018060405250810190610a9791906121de565b50600060a060003373ffffffffffffffffffffffffffffffffffffffff1673ffffffffffffffffffffffffffffffffffffffff168152602001908152602001600020819055506000609f60003373ffffffffffffffffffffffffffffffffffffffff1673ffffffffffffffffffffffffffffffffffffffff16815260200190815260200160002060006101000a81548160ff021916908315150217905550609a6000815480929190610b4890612985565b91905055503373ffffffffffffffffffffffffffffffffffffffff167f6c7e671ec35e723fdd21e81a2b98109fd74878e3233ac1c04dec9a61864c1cbd82604051610b9391906127bc565b60405180910390a25060018081905550565b6000606560009054906101000a900460ff16905090565b609e60009054906101000a900460ff1681565b609860009054906101000a900473ffffffffffffffffffffffffffffffffffffffff1681565b609b5481565b609760009054906101000a900473ffffffffffffffffffffffffffffffffffffffff1681565b600080610c2c610f53565b90506000609b54609a54610c409190612867565b905060008183610c5091906128c1565b905080935050505090565b609960009054906101000a900473ffffffffffffffffffffffffffffffffffffffff1681565b6000609860009054906101000a900473ffffffffffffffffffffffffffffffffffffffff1673ffffffffffffffffffffffffffffffffffffffff166370a08231306040518263ffffffff1660e01b8152600401610cde91906124d4565b60206040518083038186803b158015610cf657600080fd5b505afa158015610d0a573d6000803e3d6000fd5b505050506040513d601f19601f82011682018060405250810190610d2e9190612230565b905090565b609c5481565b600060a060003373ffffffffffffffffffffffffffffffffffffffff1673ffffffffffffffffffffffffffffffffffffffff16815260200190815260200160002054905090565b3373ffffffffffffffffffffffffffffffffffffffff16609960009054906101000a900473ffffffffffffffffffffffffffffffffffffffff1673ffffffffffffffffffffffffffffffffffffffff1614610e10576040517f08c379a0000000000000000000000000000000000000000000000000000000008152600401610e07906126e0565b60405180910390fd5b610e1861194f565b565b609f6020528060005260406000206000915054906101000a900460ff1681565b3373ffffffffffffffffffffffffffffffffffffffff16609960009054906101000a900473ffffffffffffffffffffffffffffffffffffffff1673ffffffffffffffffffffffffffffffffffffffff1614610eca576040517f08c379a0000000000000000000000000000000000000000000000000000000008152600401610ec1906126e0565b60405180910390fd5b60001515609e60009054906101000a900460ff16151514610f20576040517f08c379a0000000000000000000000000000000000000000000000000000000008152600401610f1790612660565b60405180910390fd5b610f286119f2565b610f30611bd1565b6001609e60006101000a81548160ff021916908315150217905550565b609d5481565b6000609760009054906101000a900473ffffffffffffffffffffffffffffffffffffffff1673ffffffffffffffffffffffffffffffffffffffff166370a08231306040518263ffffffff1660e01b8152600401610fb091906124d4565b60206040518083038186803b158015610fc857600080fd5b505afa158015610fdc573d6000803e3d6000fd5b505050506040513d601f19601f820116820180604052508101906110009190612230565b905090565b609f60003373ffffffffffffffffffffffffffffffffffffffff1673ffffffffffffffffffffffffffffffffffffffff16815260200190815260200160002060009054906101000a900460ff1615611092576040517f08c379a00000000000000000000000000000000000000000000000000000000081526004016110899061274e565b60405180910390fd5b600260015414156110d8576040517f08c379a00000000000000000000000000000000000000000000000000000000081526004016110cf9061279c565b60405180910390fd5b60026001819055506110e8610ba5565b15611128576040517f08c379a000000000000000000000000000000000000000000000000000000000815260040161111f90612680565b60405180910390fd5b609b54811461116c576040517f08c379a000000000000000000000000000000000000000000000000000000000815260040161116390612620565b60405180910390fd5b60011515609e60009054906101000a900460ff161515146111c2576040517f08c379a00000000000000000000000000000000000000000000000000000000081526004016111b9906125a0565b60405180910390fd5b609760009054906101000a900473ffffffffffffffffffffffffffffffffffffffff1673ffffffffffffffffffffffffffffffffffffffff166323b872dd3330846040518463ffffffff1660e01b8152600401611221939291906124ef565b602060405180830381600087803b15801561123b57600080fd5b505af115801561124f573d6000803e3d6000fd5b505050506040513d601f19601f8201168201806040525081019061127391906121de565b508060a060003373ffffffffffffffffffffffffffffffffffffffff1673ffffffffffffffffffffffffffffffffffffffff168152602001908152602001600020819055506001609f60003373ffffffffffffffffffffffffffffffffffffffff1673ffffffffffffffffffffffffffffffffffffffff16815260200190815260200160002060006101000a81548160ff021916908315150217905550609a6000815480929190611323906129af565b91905055503373ffffffffffffffffffffffffffffffffffffffff167f3a2d0e41c506b136330c6e5e0295ccbf0966daece99bfe7c89020cc01dbfb8d68260405161136e91906127bc565b60405180910390a26001808190555050565b3373ffffffffffffffffffffffffffffffffffffffff16609960009054906101000a900473ffffffffffffffffffffffffffffffffffffffff1673ffffffffffffffffffffffffffffffffffffffff1614611410576040517f08c379a0000000000000000000000000000000000000000000000000000000008152600401611407906126e0565b60405180910390fd5b611418611d6c565b565b3373ffffffffffffffffffffffffffffffffffffffff16609960009054906101000a900473ffffffffffffffffffffffffffffffffffffffff1673ffffffffffffffffffffffffffffffffffffffff16146114aa576040517f08c379a00000000000000000000000000000000000000000000000000000000081526004016114a1906126e0565b60405180910390fd5b80609d81905550603c609d546114c09190612867565b426114cb9190612811565b609c8190555050565b600060019054906101000a900460ff16806114fa575060008054906101000a900460ff16155b611539576040517f08c379a0000000000000000000000000000000000000000000000000000000008152600401611530906126a0565b60405180910390fd5b60008060019054906101000a900460ff161590508015611589576001600060016101000a81548160ff02191690831515021790555060016000806101000a81548160ff0219169083151502179055505b611591611e0e565b611599611ee7565b80156115ba5760008060016101000a81548160ff0219169083151502179055505b50565b600060019054906101000a900460ff16806115e3575060008054906101000a900460ff16155b611622576040517f08c379a0000000000000000000000000000000000000000000000000000000008152600401611619906126a0565b60405180910390fd5b60008060019054906101000a900460ff161590508015611672576001600060016101000a81548160ff02191690831515021790555060016000806101000a81548160ff0219169083151502179055505b61167a611fdb565b801561169b5760008060016101000a81548160ff0219169083151502179055505b50565b6116a6610ba5565b156116e6576040517f08c379a00000000000000000000000000000000000000000000000000000000081526004016116dd90612680565b60405180910390fd5b6000609760009054906101000a900473ffffffffffffffffffffffffffffffffffffffff1673ffffffffffffffffffffffffffffffffffffffff166370a08231306040518263ffffffff1660e01b815260040161174391906124d4565b60206040518083038186803b15801561175b57600080fd5b505afa15801561176f573d6000803e3d6000fd5b505050506040513d601f19601f820116820180604052508101906117939190612230565b9050609760009054906101000a900473ffffffffffffffffffffffffffffffffffffffff1673ffffffffffffffffffffffffffffffffffffffff1663095ea7b3609860009054906101000a900473ffffffffffffffffffffffffffffffffffffffff16836040518363ffffffff1660e01b8152600401611814929190612526565b602060405180830381600087803b15801561182e57600080fd5b505af1158015611842573d6000803e3d6000fd5b505050506040513d601f19601f8201168201806040525081019061186691906121de565b50609860009054906101000a900473ffffffffffffffffffffffffffffffffffffffff1673ffffffffffffffffffffffffffffffffffffffff1663a0712d68826040518263ffffffff1660e01b81526004016118c291906127bc565b602060405180830381600087803b1580156118dc57600080fd5b505af11580156118f0573d6000803e3d6000fd5b505050506040513d601f19601f820116820180604052508101906119149190612230565b507f3877bfe58bb898397f51c7b75b78bf3b1ee555f652fef7d3ccf0127f7942f5ad81604051611944919061276e565b60405180910390a150565b611957610ba5565b15611997576040517f08c379a000000000000000000000000000000000000000000000000000000000815260040161198e90612680565b60405180910390fd5b6001606560006101000a81548160ff0219169083151502179055507f62e78cea01bee320cd4e420270b5ea74000d11b0c9f74754ebdbfc544b05a2586119db6120bb565b6040516119e891906124d4565b60405180910390a1565b6119fa610ba5565b15611a3a576040517f08c379a0000000000000000000000000000000000000000000000000000000008152600401611a3190612680565b60405180910390fd5b6000609860009054906101000a900473ffffffffffffffffffffffffffffffffffffffff1673ffffffffffffffffffffffffffffffffffffffff166370a08231306040518263ffffffff1660e01b8152600401611a9791906124d4565b60206040518083038186803b158015611aaf57600080fd5b505afa158015611ac3573d6000803e3d6000fd5b505050506040513d601f19601f82011682018060405250810190611ae79190612230565b9050609860009054906101000a900473ffffffffffffffffffffffffffffffffffffffff1673ffffffffffffffffffffffffffffffffffffffff1663db006a75826040518263ffffffff1660e01b8152600401611b4491906127bc565b602060405180830381600087803b158015611b5e57600080fd5b505af1158015611b72573d6000803e3d6000fd5b505050506040513d601f19601f82011682018060405250810190611b969190612230565b507fca174cd434bbb50dc3854cb75b616b1933214cdea8670e0a26da229506ef60fb81604051611bc69190612700565b60405180910390a150565b611bd9610ba5565b15611c19576040517f08c379a0000000000000000000000000000000000000000000000000000000008152600401611c1090612680565b60405180910390fd5b6000611c23610c21565b9050609760009054906101000a900473ffffffffffffffffffffffffffffffffffffffff1673ffffffffffffffffffffffffffffffffffffffff1663a9059cbb609960009054906101000a900473ffffffffffffffffffffffffffffffffffffffff16836040518363ffffffff1660e01b8152600401611ca4929190612526565b602060405180830381600087803b158015611cbe57600080fd5b505af1158015611cd2573d6000803e3d6000fd5b505050506040513d601f19601f82011682018060405250810190611cf691906121de565b50609960009054906101000a900473ffffffffffffffffffffffffffffffffffffffff1673ffffffffffffffffffffffffffffffffffffffff167f38475976b17b8b7702ce63671a2863beb27ea1496298807bc2092eea3764c48c8242604051611d619291906127d7565b60405180910390a250565b611d74610ba5565b611db3576040517f08c379a0000000000000000000000000000000000000000000000000000000008152600401611daa906125c0565b60405180910390fd5b6000606560006101000a81548160ff0219169083151502179055507f5db9ee0a495bf2e6ff9c91a7834c1ba4fdd244a5e8aa4e537bd38aeae4b073aa611df76120bb565b604051611e0491906124d4565b60405180910390a1565b600060019054906101000a900460ff1680611e34575060008054906101000a900460ff16155b611e73576040517f08c379a0000000000000000000000000000000000000000000000000000000008152600401611e6a906126a0565b60405180910390fd5b60008060019054906101000a900460ff161590508015611ec3576001600060016101000a81548160ff02191690831515021790555060016000806101000a81548160ff0219169083151502179055505b8015611ee45760008060016101000a81548160ff0219169083151502179055505b50565b600060019054906101000a900460ff1680611f0d575060008054906101000a900460ff16155b611f4c576040517f08c379a0000000000000000000000000000000000000000000000000000000008152600401611f43906126a0565b60405180910390fd5b60008060019054906101000a900460ff161590508015611f9c576001600060016101000a81548160ff02191690831515021790555060016000806101000a81548160ff0219169083151502179055505b6000606560006101000a81548160ff0219169083151502179055508015611fd85760008060016101000a81548160ff0219169083151502179055505b50565b600060019054906101000a900460ff1680612001575060008054906101000a900460ff16155b612040576040517f08c379a0000000000000000000000000000000000000000000000000000000008152600401612037906126a0565b60405180910390fd5b60008060019054906101000a900460ff161590508015612090576001600060016101000a81548160ff02191690831515021790555060016000806101000a81548160ff0219169083151502179055505b6001808190555080156120b85760008060016101000a81548160ff0219169083151502179055505b50565b600033905090565b6000813590506120d281612d4f565b92915050565b6000813590506120e781612d66565b92915050565b6000815190506120fc81612d66565b92915050565b60008135905061211181612d7d565b92915050565b60008151905061212681612d7d565b92915050565b60006020828403121561213e57600080fd5b600061214c848285016120c3565b91505092915050565b60008060008060008060c0878903121561216e57600080fd5b600061217c89828a016120c3565b965050602061218d89828a016120c3565b955050604061219e89828a01612102565b94505060606121af89828a01612102565b93505060806121c089828a016120d8565b92505060a06121d189828a016120c3565b9150509295509295509295565b6000602082840312156121f057600080fd5b60006121fe848285016120ed565b91505092915050565b60006020828403121561221957600080fd5b600061222784828501612102565b91505092915050565b60006020828403121561224257600080fd5b600061225084828501612117565b91505092915050565b612262816128f5565b82525050565b61227181612907565b82525050565b6122808161293d565b82525050565b61228f81612961565b82525050565b60006122a2601a83612800565b91506122ad82612a27565b602082019050919050565b60006122c5601483612800565b91506122d082612a50565b602082019050919050565b60006122e8601783612800565b91506122f382612a79565b602082019050919050565b600061230b601083612800565b915061231682612aa2565b602082019050919050565b600061232e602183612800565b915061233982612acb565b604082019050919050565b6000612351602383612800565b915061235c82612b1a565b604082019050919050565b6000612374601883612800565b915061237f82612b69565b602082019050919050565b6000612397601083612800565b91506123a282612b92565b602082019050919050565b60006123ba602e83612800565b91506123c582612bbb565b604082019050919050565b60006123dd601a83612800565b91506123e882612c0a565b602082019050919050565b6000612400601783612800565b915061240b82612c33565b602082019050919050565b6000612423601983612800565b915061242e82612c5c565b602082019050919050565b6000612446602483612800565b915061245182612c85565b604082019050919050565b6000612469601d83612800565b915061247482612cd4565b602082019050919050565b600061248c601283612800565b915061249782612cfd565b602082019050919050565b60006124af601f83612800565b91506124ba82612d26565b602082019050919050565b6124ce81612933565b82525050565b60006020820190506124e96000830184612259565b92915050565b60006060820190506125046000830186612259565b6125116020830185612259565b61251e60408301846124c5565b949350505050565b600060408201905061253b6000830185612259565b61254860208301846124c5565b9392505050565b60006020820190506125646000830184612268565b92915050565b600060208201905061257f6000830184612277565b92915050565b600060208201905061259a6000830184612286565b92915050565b600060208201905081810360008301526125b981612295565b9050919050565b600060208201905081810360008301526125d9816122b8565b9050919050565b600060208201905081810360008301526125f9816122db565b9050919050565b60006020820190508181036000830152612619816122fe565b9050919050565b6000602082019050818103600083015261263981612321565b9050919050565b6000602082019050818103600083015261265981612344565b9050919050565b6000602082019050818103600083015261267981612367565b9050919050565b600060208201905081810360008301526126998161238a565b9050919050565b600060208201905081810360008301526126b9816123ad565b9050919050565b600060208201905081810360008301526126d9816123d0565b9050919050565b600060208201905081810360008301526126f9816123f3565b9050919050565b6000604082019050818103600083015261271981612416565b905061272860208301846124c5565b92915050565b6000602082019050818103600083015261274781612439565b9050919050565b600060208201905081810360008301526127678161245c565b9050919050565b600060408201905081810360008301526127878161247f565b905061279660208301846124c5565b92915050565b600060208201905081810360008301526127b5816124a2565b9050919050565b60006020820190506127d160008301846124c5565b92915050565b60006040820190506127ec60008301856124c5565b6127f960208301846124c5565b9392505050565b600082825260208201905092915050565b600061281c82612933565b915061282783612933565b9250827fffffffffffffffffffffffffffffffffffffffffffffffffffffffffffffffff0382111561285c5761285b6129f8565b5b828201905092915050565b600061287282612933565b915061287d83612933565b9250817fffffffffffffffffffffffffffffffffffffffffffffffffffffffffffffffff04831182151516156128b6576128b56129f8565b5b828202905092915050565b60006128cc82612933565b91506128d783612933565b9250828210156128ea576128e96129f8565b5b828203905092915050565b600061290082612913565b9050919050565b60008115159050919050565b600073ffffffffffffffffffffffffffffffffffffffff82169050919050565b6000819050919050565b60006129488261294f565b9050919050565b600061295a82612913565b9050919050565b600061296c82612973565b9050919050565b600061297e82612913565b9050919050565b600061299082612933565b915060008214156129a4576129a36129f8565b5b600182039050919050565b60006129ba82612933565b91507fffffffffffffffffffffffffffffffffffffffffffffffffffffffffffffffff8214156129ed576129ec6129f8565b5b600182019050919050565b7f4e487b7100000000000000000000000000000000000000000000000000000000600052601160045260246000fd5b7f436f757273652068617320616c72656164792073746172746564000000000000600082015250565b7f5061757361626c653a206e6f7420706175736564000000000000000000000000600082015250565b7f796f7520646f6e74206861766520612062616c616e6365000000000000000000600082015250565b7f796f75206469646e7420656e726f6c6c00000000000000000000000000000000600082015250565b7f616d6f756e74206973206e6f7420657175616c20746f20636f7572736520666560008201527f6500000000000000000000000000000000000000000000000000000000000000602082015250565b7f62616c616e6365206973206c6f636b656420647572696e672074686520436f7560008201527f7273650000000000000000000000000000000000000000000000000000000000602082015250565b7f436f757273652068617320616c726561647920656e6465640000000000000000600082015250565b7f5061757361626c653a2070617573656400000000000000000000000000000000600082015250565b7f496e697469616c697a61626c653a20636f6e747261637420697320616c72656160008201527f647920696e697469616c697a6564000000000000000000000000000000000000602082015250565b7f63546f6b656e20416464726573732063616e6e6f742062652030000000000000600082015250565b7f63616c6c6572206973206e6f7420746865206f776e6572000000000000000000600082015250565b7f46756e64732077697468647261776e2066726f6d20436f6d7000000000000000600082015250565b7f556e6465726c79696e6720546f6b656e20416464726573732063616e6e6f742060008201527f6265203000000000000000000000000000000000000000000000000000000000602082015250565b7f7573657220616c7265616479207061696420636f6e74656e7420666565000000600082015250565b7f46756e64732073656e7420746f20436f6d700000000000000000000000000000600082015250565b7f5265656e7472616e637947756172643a207265656e7472616e742063616c6c00600082015250565b612d58816128f5565b8114612d6357600080fd5b50565b612d6f81612907565b8114612d7a57600080fd5b50565b612d8681612933565b8114612d9157600080fd5b5056fea26469706673582212204861df39712a9aa25341ffdbbfe3956d7c402f0f7aafb4a2239c5b9d99e2ec9464736f6c63430008040033",
  "linkReferences": {},
  "deployedLinkReferences": {}
}